{
  "_format": "hh-sol-artifact-1",
  "contractName": "Staking",
  "sourceName": "contracts/Staking.sol",
  "address": "0x80172E1828fEB51267a7B938AE5a61cA6c0946CE",
  "abi": [
    {
      "inputs": [],
      "stateMutability": "nonpayable",
      "type": "constructor"
    },
    {
      "anonymous": false,
      "inputs": [
        {
          "indexed": false,
          "internalType": "address",
          "name": "previousAdmin",
          "type": "address"
        },
        {
          "indexed": false,
          "internalType": "address",
          "name": "newAdmin",
          "type": "address"
        }
      ],
      "name": "AdminChanged",
      "type": "event"
    },
    {
      "anonymous": false,
      "inputs": [
        {
          "indexed": true,
          "internalType": "address",
          "name": "beacon",
          "type": "address"
        }
      ],
      "name": "BeaconUpgraded",
      "type": "event"
    },
    {
      "anonymous": false,
      "inputs": [
        {
          "indexed": false,
          "internalType": "uint8",
          "name": "version",
          "type": "uint8"
        }
      ],
      "name": "Initialized",
      "type": "event"
    },
    {
      "anonymous": false,
      "inputs": [
        {
          "indexed": true,
          "internalType": "address",
          "name": "previousOwner",
          "type": "address"
        },
        {
          "indexed": true,
          "internalType": "address",
          "name": "newOwner",
          "type": "address"
        }
      ],
      "name": "OwnershipTransferred",
      "type": "event"
    },
    {
      "anonymous": false,
      "inputs": [
        {
          "indexed": true,
          "internalType": "address",
          "name": "staker",
          "type": "address"
        },
        {
          "indexed": false,
          "internalType": "uint256",
          "name": "amount",
          "type": "uint256"
        }
      ],
      "name": "RewardClaimed",
      "type": "event"
    },
    {
      "anonymous": false,
      "inputs": [
        {
          "indexed": true,
          "internalType": "address",
          "name": "staker",
          "type": "address"
        },
        {
          "indexed": false,
          "internalType": "uint256",
          "name": "stakedAmount",
          "type": "uint256"
        }
      ],
      "name": "Staked",
      "type": "event"
    },
    {
      "anonymous": false,
      "inputs": [
        {
          "indexed": true,
          "internalType": "address",
          "name": "account",
          "type": "address"
        },
        {
          "indexed": true,
          "internalType": "address",
          "name": "to",
          "type": "address"
        },
        {
          "indexed": false,
          "internalType": "uint256",
          "name": "amount",
          "type": "uint256"
        }
      ],
      "name": "TokensRecovered",
      "type": "event"
    },
    {
      "anonymous": false,
      "inputs": [
        {
          "indexed": true,
          "internalType": "address",
          "name": "staker",
          "type": "address"
        },
        {
          "indexed": false,
          "internalType": "uint256",
          "name": "stakedAmount",
          "type": "uint256"
        }
      ],
      "name": "Unstaked",
      "type": "event"
    },
    {
      "anonymous": false,
      "inputs": [
        {
          "indexed": true,
          "internalType": "address",
          "name": "implementation",
          "type": "address"
        }
      ],
      "name": "Upgraded",
      "type": "event"
    },
    {
      "inputs": [],
      "name": "claimRewards",
      "outputs": [],
      "stateMutability": "nonpayable",
      "type": "function"
    },
    {
      "inputs": [],
      "name": "closeStaking",
      "outputs": [],
      "stateMutability": "nonpayable",
      "type": "function"
    },
    {
      "inputs": [
        {
          "internalType": "uint256",
          "name": "newStartBlock_",
          "type": "uint256"
        },
        {
          "internalType": "uint256",
          "name": "newEndBlock_",
          "type": "uint256"
        },
        {
          "internalType": "uint256",
          "name": "newTotalRewards_",
          "type": "uint256"
        }
      ],
      "name": "extendStaking",
      "outputs": [],
      "stateMutability": "nonpayable",
      "type": "function"
    },
    {
      "inputs": [],
      "name": "getAllStakers",
      "outputs": [
        {
          "internalType": "address[]",
          "name": "",
          "type": "address[]"
        }
      ],
      "stateMutability": "view",
      "type": "function"
    },
    {
      "inputs": [],
      "name": "getDetails",
      "outputs": [
        {
          "internalType": "bool",
          "name": "isPaused",
          "type": "bool"
        },
        {
          "internalType": "bool",
          "name": "resetClaimDelay",
          "type": "bool"
        },
        {
          "internalType": "address",
          "name": "stakeToken",
          "type": "address"
        },
        {
          "internalType": "address",
          "name": "rewardToken",
          "type": "address"
        },
        {
          "internalType": "uint256",
          "name": "startBlock",
          "type": "uint256"
        },
        {
          "internalType": "uint256",
          "name": "endBlock",
          "type": "uint256"
        },
        {
          "internalType": "uint256",
          "name": "claimDelay",
          "type": "uint256"
        },
        {
          "internalType": "uint256",
          "name": "totalRewards",
          "type": "uint256"
        },
        {
          "internalType": "uint256",
          "name": "totalFundsStaked",
          "type": "uint256"
        },
        {
          "internalType": "uint256",
          "name": "totalRewardsDistributed",
          "type": "uint256"
        }
      ],
      "stateMutability": "view",
      "type": "function"
    },
    {
      "inputs": [],
      "name": "getRewardDetails",
      "outputs": [
        {
          "internalType": "uint256",
          "name": "rewardPerBlock",
          "type": "uint256"
        },
        {
          "internalType": "uint256",
          "name": "accRewardPerShare",
          "type": "uint256"
        },
        {
          "internalType": "uint256",
          "name": "lastCheckpoint",
          "type": "uint256"
        }
      ],
      "stateMutability": "view",
      "type": "function"
    },
    {
      "inputs": [
        {
          "internalType": "address",
          "name": "staker_",
          "type": "address"
        }
      ],
      "name": "getStakerInfo",
      "outputs": [
        {
          "internalType": "bool",
          "name": "exist",
          "type": "bool"
        },
        {
          "internalType": "uint256",
          "name": "stakedAmount",
          "type": "uint256"
        },
        {
          "internalType": "uint256",
          "name": "unclaimedRewards",
          "type": "uint256"
        },
        {
          "internalType": "uint256",
          "name": "claimCheckpoint",
          "type": "uint256"
        },
        {
          "internalType": "uint256",
          "name": "totalRewardsClaimed",
          "type": "uint256"
        }
      ],
      "stateMutability": "view",
      "type": "function"
    },
    {
      "inputs": [
        {
          "internalType": "address",
          "name": "staker_",
          "type": "address"
        }
      ],
      "name": "getUnclaimedRewardsFor",
      "outputs": [
        {
          "internalType": "uint256",
          "name": "",
          "type": "uint256"
        }
      ],
      "stateMutability": "view",
      "type": "function"
    },
    {
      "inputs": [
        {
          "internalType": "address",
          "name": "owner_",
          "type": "address"
        },
        {
          "internalType": "address",
          "name": "stakeToken_",
          "type": "address"
        },
        {
          "internalType": "address",
          "name": "rewardToken_",
          "type": "address"
        },
        {
          "internalType": "uint256",
          "name": "startBlock_",
          "type": "uint256"
        },
        {
          "internalType": "uint256",
          "name": "endBlock_",
          "type": "uint256"
        },
        {
          "internalType": "uint256",
          "name": "claimDelay_",
          "type": "uint256"
        },
        {
          "internalType": "uint256",
          "name": "totalRewards_",
          "type": "uint256"
        },
        {
          "internalType": "bool",
          "name": "resetClaimDelay_",
          "type": "bool"
        },
        {
          "internalType": "bool",
          "name": "purgedRewards_",
          "type": "bool"
        }
      ],
      "name": "initialize",
      "outputs": [],
      "stateMutability": "nonpayable",
      "type": "function"
    },
    {
      "inputs": [],
      "name": "isLocked",
      "outputs": [
        {
          "internalType": "bool",
          "name": "",
          "type": "bool"
        }
      ],
      "stateMutability": "view",
      "type": "function"
    },
    {
      "inputs": [],
      "name": "owner",
      "outputs": [
        {
          "internalType": "address",
          "name": "",
          "type": "address"
        }
      ],
      "stateMutability": "view",
      "type": "function"
    },
    {
      "inputs": [],
      "name": "proxiableUUID",
      "outputs": [
        {
          "internalType": "bytes32",
          "name": "",
          "type": "bytes32"
        }
      ],
      "stateMutability": "view",
      "type": "function"
    },
    {
      "inputs": [],
      "name": "purgedRewards",
      "outputs": [
        {
          "internalType": "bool",
          "name": "",
          "type": "bool"
        }
      ],
      "stateMutability": "view",
      "type": "function"
    },
    {
      "inputs": [
        {
          "internalType": "address",
          "name": "to_",
          "type": "address"
        },
        {
          "internalType": "address",
          "name": "token_",
          "type": "address"
        },
        {
          "internalType": "uint256",
          "name": "amount_",
          "type": "uint256"
        }
      ],
      "name": "recoverTokens",
      "outputs": [],
      "stateMutability": "nonpayable",
      "type": "function"
    },
    {
      "inputs": [
        {
          "internalType": "uint256",
          "name": "amount_",
          "type": "uint256"
        }
      ],
      "name": "stake",
      "outputs": [],
      "stateMutability": "nonpayable",
      "type": "function"
    },
    {
      "inputs": [
        {
          "internalType": "address",
          "name": "",
          "type": "address"
        }
      ],
      "name": "stakerInfo",
      "outputs": [
        {
          "internalType": "bool",
          "name": "exist",
          "type": "bool"
        },
        {
          "internalType": "uint256",
          "name": "stakedAmount",
          "type": "uint256"
        },
        {
          "internalType": "uint256",
          "name": "rewardDebt",
          "type": "uint256"
        },
        {
          "internalType": "uint256",
          "name": "unclaimedRewards",
          "type": "uint256"
        },
        {
          "internalType": "uint256",
          "name": "claimCheckpoint",
          "type": "uint256"
        },
        {
          "internalType": "uint256",
          "name": "totalRewardsClaimed",
          "type": "uint256"
        }
      ],
      "stateMutability": "view",
      "type": "function"
    },
    {
      "inputs": [
        {
          "internalType": "address",
          "name": "newOwner_",
          "type": "address"
        }
      ],
      "name": "transferOwnership",
      "outputs": [],
      "stateMutability": "nonpayable",
      "type": "function"
    },
    {
      "inputs": [],
      "name": "unstake",
      "outputs": [],
      "stateMutability": "nonpayable",
      "type": "function"
    },
    {
      "inputs": [
        {
          "internalType": "uint256",
          "name": "newClaimDelay_",
          "type": "uint256"
        }
      ],
      "name": "updateClaimDelay",
      "outputs": [],
      "stateMutability": "nonpayable",
      "type": "function"
    },
    {
      "inputs": [
        {
          "internalType": "uint256",
          "name": "startBlock_",
          "type": "uint256"
        },
        {
          "internalType": "uint256",
          "name": "endBlock_",
          "type": "uint256"
        },
        {
          "internalType": "uint256",
          "name": "totalRewards_",
          "type": "uint256"
        }
      ],
      "name": "updateConfig",
      "outputs": [],
      "stateMutability": "nonpayable",
      "type": "function"
    },
    {
      "inputs": [
        {
          "internalType": "bool",
          "name": "purgedRewards_",
          "type": "bool"
        }
      ],
      "name": "updatePurgedReward",
      "outputs": [],
      "stateMutability": "nonpayable",
      "type": "function"
    },
    {
      "inputs": [
        {
          "internalType": "bool",
          "name": "resetClaimDelay_",
          "type": "bool"
        }
      ],
      "name": "updateResetClaimDelay",
      "outputs": [],
      "stateMutability": "nonpayable",
      "type": "function"
    },
    {
      "inputs": [
        {
          "internalType": "bool",
          "name": "isPaused_",
          "type": "bool"
        }
      ],
      "name": "updateStakingStatus",
      "outputs": [],
      "stateMutability": "nonpayable",
      "type": "function"
    },
    {
      "inputs": [
        {
          "internalType": "address",
          "name": "newImplementation",
          "type": "address"
        }
      ],
      "name": "upgradeTo",
      "outputs": [],
      "stateMutability": "nonpayable",
      "type": "function"
    },
    {
      "inputs": [
        {
          "internalType": "address",
          "name": "newImplementation",
          "type": "address"
        },
        {
          "internalType": "bytes",
          "name": "data",
          "type": "bytes"
        }
      ],
      "name": "upgradeToAndCall",
      "outputs": [],
      "stateMutability": "payable",
      "type": "function"
    },
    {
      "inputs": [],
      "name": "usersProcessed",
      "outputs": [
        {
          "internalType": "uint256",
          "name": "",
          "type": "uint256"
        }
      ],
      "stateMutability": "view",
      "type": "function"
    }
  ],
  "bytecode": "0x60a0604052306080523480156200001557600080fd5b50604154610100900460ff1615808015620000375750604154600160ff909116105b8062000067575062000054306200014160201b620019b71760201c565b15801562000067575060415460ff166001145b620000cf5760405162461bcd60e51b815260206004820152602e60248201527f496e697469616c697a61626c653a20636f6e747261637420697320616c72656160448201526d191e481a5b9a5d1a585b1a5e995960921b606482015260840160405180910390fd5b6041805460ff191660011790558015620000f3576041805461ff0019166101001790555b80156200013a576041805461ff0019169055604051600181527f7f26b83ff96e1f2b6a682f133852f6798a09c465da95921460cefb38474024989060200160405180910390a15b5062000150565b6001600160a01b03163b151590565b608051612a2862000188600039600081816107fa0152818161083a01528181610c4b01528181610c8b0152610d1e0152612a286000f3fe6080604052600436106101815760003560e01c806380ef06cd116100d1578063d0c402761161008a578063e58e59e111610064578063e58e59e1146104d2578063f2fde38b146104f2578063f8f4d4e814610512578063fbbf93a01461053257600080fd5b8063d0c4027614610461578063d7c85d8814610492578063e247b8d8146104b257600080fd5b806380ef06cd146103ad578063886c365b146103c35780638da5cb5b146103e357806398cfe5871461040b578063a4e2d63414610420578063a694fc3a1461044157600080fd5b80634f1ef2861161013e5780635f3e849f116101185780635f3e849f146103015780636e4f88c814610321578063733bdef01461034357806373ad49461461038d57600080fd5b80634f1ef286146102b957806352d1902d146102cc578063578a7cda146102e157600080fd5b80630352fe64146101865780632def6620146101bc5780633659cfe6146101d3578063372500ab146101f35780633b50055e146102085780634e745f1f14610236575b600080fd5b34801561019257600080fd5b506003546101a790600160b81b900460ff1681565b60405190151581526020015b60405180910390f35b3480156101c857600080fd5b506101d16105e0565b005b3480156101df57600080fd5b506101d16101ee366004612322565b6107f0565b3480156101ff57600080fd5b506101d16108cf565b34801561021457600080fd5b50610228610223366004612322565b610b12565b6040519081526020016101b3565b34801561024257600080fd5b5061028a610251366004612322565b60006020819052908152604090208054600182015460028301546003840154600485015460059095015460ff9094169492939192909186565b6040805196151587526020870195909552938501929092526060840152608083015260a082015260c0016101b3565b6101d16102c7366004612353565b610c41565b3480156102d857600080fd5b50610228610d11565b3480156102ed57600080fd5b506101d16102fc366004612423565b610dc4565b34801561030d57600080fd5b506101d161031c366004612440565b610e0c565b34801561032d57600080fd5b50610336610e9c565b6040516101b3919061247c565b34801561034f57600080fd5b5061036361035e366004612322565b610efe565b6040805195151586526020860194909452928401919091526060830152608082015260a0016101b3565b34801561039957600080fd5b506101d16103a83660046124c9565b610f8f565b3480156103b957600080fd5b50610228600e5481565b3480156103cf57600080fd5b506101d16103de3660046124c9565b6110bd565b3480156103ef57600080fd5b506074546040516001600160a01b0390911681526020016101b3565b34801561041757600080fd5b506101d1611250565b34801561042c57600080fd5b506003546101a790600160b01b900460ff1681565b34801561044d57600080fd5b506101d161045c3660046124f5565b6112d2565b34801561046d57600080fd5b50600a54600b54600c54604080519384526020840192909252908201526060016101b3565b34801561049e57600080fd5b506101d16104ad36600461250e565b611510565b3480156104be57600080fd5b506101d16104cd3660046124f5565b6117b8565b3480156104de57600080fd5b506101d16104ed366004612423565b611811565b3480156104fe57600080fd5b506101d161050d366004612322565b611859565b34801561051e57600080fd5b506101d161052d366004612423565b611927565b34801561053e57600080fd5b50610588600354600254600454600554600654600754600854600954600160a01b880460ff90811699600160a81b8a04909116986001600160a01b03988916981696959493929190565b604080519a15158b5298151560208b01526001600160a01b03978816988a0198909852959094166060880152608087019290925260a086015260c085015260e0840152610100830152610120820152610140016101b3565b600354600160b01b900460ff16156106135760405162461bcd60e51b815260040161060a906125a0565b60405180910390fd5b336000908152602081905260409020600181015461066c5760405162461bcd60e51b815260206004820152601660248201527521a0a62622a92fa4a9afa727aa2fa0afa9aa20a5a2a960511b604482015260640161060a565b6106746119c6565b60018101805460009182905560088054919283926106939084906125ed565b9250508190555060008260020154600d54600b54846106b29190612600565b6106bc9190612617565b6106c691906125ed565b83600301546106d59190612639565b905060065483600401546106e99190612639565b421061077e57600083600301819055508083600501600082825461070d9190612639565b9250508190555080600960008282546107269190612639565b909155506107449050335b6003546001600160a01b03169083611a54565b60405181815233907f106f923f993c2149d49b4255ff723acafa1f2d94393f561d3eda32ae348f72419060200160405180910390a261079e565b600354600160b81b900460ff166107955780610798565b60005b60038401555b6107b5336002546001600160a01b03169084611a54565b60405182815233907f0f5bb82176feb1b5e747e28471aa92156a04d9f3ab9f45f28e2d704232b93f75906020015b60405180910390a2505050565b6001600160a01b037f00000000000000000000000000000000000000000000000000000000000000001630036108385760405162461bcd60e51b815260040161060a9061264c565b7f00000000000000000000000000000000000000000000000000000000000000006001600160a01b03166108816000805160206129ac833981519152546001600160a01b031690565b6001600160a01b0316146108a75760405162461bcd60e51b815260040161060a90612698565b6108b081611ab7565b604080516000808252602082019092526108cc91839190611ae1565b50565b600354600160b01b900460ff16156108f95760405162461bcd60e51b815260040161060a906125a0565b336000908152602081905260409020600181015415158061091e575060008160030154115b6109635760405162461bcd60e51b815260206004820152601660248201527521a0a62622a92fa4a9afa727aa2fa0afa9aa20a5a2a960511b604482015260640161060a565b60065481600401546109759190612639565b4210156109c45760405162461bcd60e51b815260206004820152601760248201527f434c41494d5f44454c41595f49535f4e4f545f4f564552000000000000000000604482015260640161060a565b600081600101546000036109dd57506003810154610a32565b6109e56119c6565b6000600d54600b5484600101546109fc9190612600565b610a069190612617565b90508260020154818460030154610a1d9190612639565b610a2791906125ed565b600284019190915590505b60008111610a7b5760405162461bcd60e51b81526020600482015260166024820152755a45524f5f434c41494d41424c455f5245574152445360501b604482015260640161060a565b6000826003018190555080826005016000828254610a999190612639565b925050819055508060096000828254610ab29190612639565b9091555050600354600160a81b900460ff1615610ad0574260048301555b610ad933610731565b60405181815233907f106f923f993c2149d49b4255ff723acafa1f2d94393f561d3eda32ae348f72419060200160405180910390a25050565b6001600160a01b038116600090815260208181526040808320815160c081018352815460ff1615158152600182015493810184905260028201549281019290925260038101546060830152600481015460808301526005015460a0820152908203610b81576060015192915050565b600b546060820151600c5443118015610b9d5750600554600c54105b8015610baa575060085415155b15610c02576000600c54610bc043600554611c4c565b610bca91906125ed565b9050600854600d54600a5483610be09190612600565b610bea9190612600565b610bf49190612617565b610bfe9084612639565b9250505b8260400151600d54838560200151610c1a9190612600565b610c249190612617565b610c2e91906125ed565b610c389082612639565b95945050505050565b6001600160a01b037f0000000000000000000000000000000000000000000000000000000000000000163003610c895760405162461bcd60e51b815260040161060a9061264c565b7f00000000000000000000000000000000000000000000000000000000000000006001600160a01b0316610cd26000805160206129ac833981519152546001600160a01b031690565b6001600160a01b031614610cf85760405162461bcd60e51b815260040161060a90612698565b610d0182611ab7565b610d0d82826001611ae1565b5050565b6000306001600160a01b037f00000000000000000000000000000000000000000000000000000000000000001614610db15760405162461bcd60e51b815260206004820152603860248201527f555550535570677261646561626c653a206d757374206e6f742062652063616c60448201527f6c6564207468726f7567682064656c656761746563616c6c0000000000000000606482015260840161060a565b506000805160206129ac83398151915290565b6074546001600160a01b03163314610dee5760405162461bcd60e51b815260040161060a906126e4565b60038054911515600160a01b0260ff60a01b19909216919091179055565b6074546001600160a01b03163314610e365760405162461bcd60e51b815260040161060a906126e4565b610e4a6001600160a01b0383168483611a54565b826001600160a01b0316826001600160a01b03167f401f439d865a766757ec78675925bd67198d5e78805aa41691b34b5d6a6cbbe683604051610e8f91815260200190565b60405180910390a3505050565b60606001805480602002602001604051908101604052809291908181526020018280548015610ef457602002820191906000526020600020905b81546001600160a01b03168152600190910190602001808311610ed6575b5050505050905090565b6001600160a01b038116600090815260208181526040808320815160c081018352815460ff1615158082526001830154948201859052600283015493820193909352600382015460608201526004820154608082015260059091015460a08201528392839283928392909190610f7389610b12565b608084015160a090940151929a91995097509195509350915050565b6074546001600160a01b03163314610fb95760405162461bcd60e51b815260040161060a906126e4565b600454431061100a5760405162461bcd60e51b815260206004820152601b60248201527f5354414b494e475f4841535f414c52454144595f535441525445440000000000604482015260640161060a565b6000811161102a5760405162461bcd60e51b815260040161060a9061270e565b4383101561104a5760405162461bcd60e51b815260040161060a90612745565b8282116110925760405162461bcd60e51b81526020600482015260166024820152751253959053125117d4955393925391d7d411549253d160521b604482015260640161060a565b6004839055600582905560078190556110ab83836125ed565b6110b59082612617565b600a55505050565b6074546001600160a01b031633146110e75760405162461bcd60e51b815260040161060a906126e4565b6005548310156111095760405162461bcd60e51b815260040161060a90612745565b82821161114c5760405162461bcd60e51b8152602060048201526011602482015270494e56414c49445f454e445f424c4f434b60781b604482015260640161060a565b6000811161116c5760405162461bcd60e51b815260040161060a9061270e565b600354600160b01b900460ff166111ea576005544310156111cf5760405162461bcd60e51b815260206004820152601960248201527f5354414b494e475f4841535f4e4f545f454e4445445f59455400000000000000604482015260640161060a565b6003805460ff60b01b1916600160b01b1790556111ea6119c6565b600154600e54146111fd576111fd611c66565b600154600e540361124b5760048390556005829055600781905561122183836125ed565b61122b9082612617565b600a55600c8390556000600b819055600e556003805460ff60b01b191690555b505050565b6074546001600160a01b0316331461127a5760405162461bcd60e51b815260040161060a906126e4565b6005544311156112cc5760405162461bcd60e51b815260206004820152601960248201527f5354414b494e475f4841535f414c52454144595f454e44454400000000000000604482015260640161060a565b43600555565b600354600160b01b900460ff16156112fc5760405162461bcd60e51b815260040161060a906125a0565b600454431015801561131057506005544311155b80156113265750600354600160a01b900460ff16155b61136a5760405162461bcd60e51b81526020600482015260156024820152745354414b494e475f49535f4e4f545f41435449564560581b604482015260640161060a565b600081116113ab5760405162461bcd60e51b815260206004820152600e60248201526d1253959053125117d05353d5539560921b604482015260640161060a565b6113b36119c6565b336000908152602081905260408120805490919060ff1661141557815460ff1916600190811783556113e23390565b81546001810183556000928352602090922090910180546001600160a01b0319166001600160a01b039092169190911790555b600182015415611454578160020154600d54600b5484600101546114399190612600565b6114439190612617565b61144d91906125ed565b9050611463565b60065415611463574260048301555b828260010160008282546114779190612639565b9091555050600d54600b54600184015483929161149391612600565b61149d9190612617565b6114a791906125ed565b826002018190555082600860008282546114c19190612639565b90915550506002546114de906001600160a01b0316333086611d40565b60405183815233907f9e71bc8eea02a63969f509818f2dafb9254532904319f9dbda79b67bd34a5f3d906020016107e3565b604154610100900460ff16158080156115305750604154600160ff909116105b8061154a5750303b15801561154a575060415460ff166001145b6115ad5760405162461bcd60e51b815260206004820152602e60248201527f496e697469616c697a61626c653a20636f6e747261637420697320616c72656160448201526d191e481a5b9a5d1a585b1a5e995960921b606482015260840161060a565b6041805460ff1916600117905580156115d0576041805461ff0019166101001790555b438710156115f05760405162461bcd60e51b815260040161060a90612745565b8686116116385760405162461bcd60e51b81526020600482015260166024820152751253959053125117d4955393925391d7d411549253d160521b604482015260640161060a565b600084116116585760405162461bcd60e51b815260040161060a9061270e565b611660611d7e565b6116698a611da7565b600280546001600160a01b03808c166001600160a01b0319928316811790935560038054918c16919092161790556040805163313ce56760e01b8152905163313ce567916004808201926020929091908290030181865afa1580156116d2573d6000803e3d6000fd5b505050506040513d601f19601f820116820180604052508101906116f69190612772565b61170190600a612879565b600d556004879055600586905560068590556003805460ff60b81b1916600160b81b84151502179055600784905561173987876125ed565b6117439085612617565b600a5560065415611766576003805460ff60a81b1916600160a81b851515021790555b80156117ac576041805461ff0019169055604051600181527f7f26b83ff96e1f2b6a682f133852f6798a09c465da95921460cefb38474024989060200160405180910390a15b50505050505050505050565b6074546001600160a01b031633146117e25760405162461bcd60e51b815260040161060a906126e4565b801580156117f95750600354600160a81b900460ff165b1561180c576003805460ff60a81b191690555b600655565b6074546001600160a01b0316331461183b5760405162461bcd60e51b815260040161060a906126e4565b60038054911515600160b81b0260ff60b81b19909216919091179055565b6074546001600160a01b031633146118835760405162461bcd60e51b815260040161060a906126e4565b6001600160a01b0381166118cb5760405162461bcd60e51b815260206004820152600f60248201526e494e56414c49445f4144445245535360881b604482015260640161060a565b6074546040516001600160a01b038084169216907f8be0079c531659141344cd1fd0a4f28419497f9722a3daafe3b4186f6b6457e090600090a3607480546001600160a01b0319166001600160a01b0392909216919091179055565b6074546001600160a01b031633146119515760405162461bcd60e51b815260040161060a906126e4565b6000600654116119995760405162461bcd60e51b8152602060048201526013602482015272434c41494d5f44454c41595f49535f5a45524f60681b604482015260640161060a565b60038054911515600160a81b0260ff60a81b19909216919091179055565b6001600160a01b03163b151590565b600c54431115806119db5750600554600c5410155b156119e257565b6008546000036119f25743600c55565b6000600c54611a0343600554611c4c565b611a0d91906125ed565b9050600854600d54600a5483611a239190612600565b611a2d9190612600565b611a379190612617565b600b6000828254611a489190612639565b909155505043600c5550565b6040516001600160a01b03831660248201526044810182905261124b90849063a9059cbb60e01b906064015b60408051601f198184030181529190526020810180516001600160e01b03166001600160e01b031990931692909217909152611ddf565b6074546001600160a01b031633146108cc5760405162461bcd60e51b815260040161060a906126e4565b7f4910fdfa16fed3260ed0e7147f7cc6da11a60208b5b9406d12a635614ffd91435460ff1615611b145761124b83611eb1565b826001600160a01b03166352d1902d6040518163ffffffff1660e01b8152600401602060405180830381865afa925050508015611b6e575060408051601f3d908101601f19168201909252611b6b91810190612888565b60015b611bd15760405162461bcd60e51b815260206004820152602e60248201527f45524331393637557067726164653a206e657720696d706c656d656e7461746960448201526d6f6e206973206e6f74205555505360901b606482015260840161060a565b6000805160206129ac8339815191528114611c405760405162461bcd60e51b815260206004820152602960248201527f45524331393637557067726164653a20756e737570706f727465642070726f786044820152681a58589b195555525160ba1b606482015260840161060a565b5061124b838383611f4d565b6000818310611c5b5781611c5d565b825b90505b92915050565b600e545b600154811015611d3b57600080600060018481548110611c8c57611c8c6128a1565b60009182526020808320909101546001600160a01b031683528201929092526040019020600181015490915015611d0b578060020154600d54600b548360010154611cd79190612600565b611ce19190612617565b611ceb91906125ed565b816003016000828254611cfe9190612639565b9091555050600060028201555b62015f905a1015611d2857611d21826001612639565b600e555050565b5080611d33816128b7565b915050611c6a565b600e55565b6040516001600160a01b0380851660248301528316604482015260648101829052611d789085906323b872dd60e01b90608401611a80565b50505050565b604154610100900460ff16611da55760405162461bcd60e51b815260040161060a906128d0565b565b604154610100900460ff16611dce5760405162461bcd60e51b815260040161060a906128d0565b611dd6611d7e565b6108cc81611f72565b6000611e34826040518060400160405280602081526020017f5361666545524332303a206c6f772d6c6576656c2063616c6c206661696c6564815250856001600160a01b031661202d9092919063ffffffff16565b80519091501561124b5780806020019051810190611e52919061291b565b61124b5760405162461bcd60e51b815260206004820152602a60248201527f5361666545524332303a204552433230206f7065726174696f6e20646964206e6044820152691bdd081cdd58d8d9595960b21b606482015260840161060a565b6001600160a01b0381163b611f1e5760405162461bcd60e51b815260206004820152602d60248201527f455243313936373a206e657720696d706c656d656e746174696f6e206973206e60448201526c1bdd08184818dbdb9d1c9858dd609a1b606482015260840161060a565b6000805160206129ac83398151915280546001600160a01b0319166001600160a01b0392909216919091179055565b611f5683612046565b600082511180611f635750805b1561124b57611d788383612086565b604154610100900460ff16611f995760405162461bcd60e51b815260040161060a906128d0565b6001600160a01b038116611fe15760405162461bcd60e51b815260206004820152600f60248201526e494e56414c49445f4144445245535360881b604482015260640161060a565b607480546001600160a01b0319166001600160a01b0383169081179091556040516000907f8be0079c531659141344cd1fd0a4f28419497f9722a3daafe3b4186f6b6457e0908290a350565b606061203c8484600085612171565b90505b9392505050565b61204f81611eb1565b6040516001600160a01b038216907fbc7cd75a20ee27fd9adebab32041f755214dbc6bffa90cc0225b39da2e5c2d3b90600090a250565b60606001600160a01b0383163b6120ee5760405162461bcd60e51b815260206004820152602660248201527f416464726573733a2064656c65676174652063616c6c20746f206e6f6e2d636f6044820152651b9d1c9858dd60d21b606482015260840161060a565b600080846001600160a01b031684604051612109919061295c565b600060405180830381855af49150503d8060008114612144576040519150601f19603f3d011682016040523d82523d6000602084013e612149565b606091505b5091509150610c3882826040518060600160405280602781526020016129cc6027913961224e565b6060824710156121d25760405162461bcd60e51b815260206004820152602660248201527f416464726573733a20696e73756666696369656e742062616c616e636520666f6044820152651c8818d85b1b60d21b606482015260840161060a565b600080866001600160a01b031685876040516121ee919061295c565b60006040518083038185875af1925050503d806000811461222b576040519150601f19603f3d011682016040523d82523d6000602084013e612230565b606091505b509150915061224187838387612267565b925050505b949350505050565b6060831561225d57508161203f565b61203f83836122dc565b606083156122d65782516000036122cf576001600160a01b0385163b6122cf5760405162461bcd60e51b815260206004820152601d60248201527f416464726573733a2063616c6c20746f206e6f6e2d636f6e7472616374000000604482015260640161060a565b5081612246565b61224683835b8151156122ec5781518083602001fd5b8060405162461bcd60e51b815260040161060a9190612978565b80356001600160a01b038116811461231d57600080fd5b919050565b60006020828403121561233457600080fd5b611c5d82612306565b634e487b7160e01b600052604160045260246000fd5b6000806040838503121561236657600080fd5b61236f83612306565b9150602083013567ffffffffffffffff8082111561238c57600080fd5b818501915085601f8301126123a057600080fd5b8135818111156123b2576123b261233d565b604051601f8201601f19908116603f011681019083821181831017156123da576123da61233d565b816040528281528860208487010111156123f357600080fd5b8260208601602083013760006020848301015280955050505050509250929050565b80151581146108cc57600080fd5b60006020828403121561243557600080fd5b813561203f81612415565b60008060006060848603121561245557600080fd5b61245e84612306565b925061246c60208501612306565b9150604084013590509250925092565b6020808252825182820181905260009190848201906040850190845b818110156124bd5783516001600160a01b031683529284019291840191600101612498565b50909695505050505050565b6000806000606084860312156124de57600080fd5b505081359360208301359350604090920135919050565b60006020828403121561250757600080fd5b5035919050565b60008060008060008060008060006101208a8c03121561252d57600080fd5b6125368a612306565b985061254460208b01612306565b975061255260408b01612306565b965060608a0135955060808a0135945060a08a0135935060c08a0135925060e08a013561257e81612415565b91506101008a013561258f81612415565b809150509295985092959850929598565b6020808252601c908201527f434f4e54524143545f49535f43555252454e544c595f4c4f434b454400000000604082015260600190565b634e487b7160e01b600052601160045260246000fd5b81810381811115611c6057611c606125d7565b8082028115828204841417611c6057611c606125d7565b60008261263457634e487b7160e01b600052601260045260246000fd5b500490565b80820180821115611c6057611c606125d7565b6020808252602c908201527f46756e6374696f6e206d7573742062652063616c6c6564207468726f7567682060408201526b19195b1959d85d1958d85b1b60a21b606082015260800190565b6020808252602c908201527f46756e6374696f6e206d7573742062652063616c6c6564207468726f7567682060408201526b6163746976652070726f787960a01b606082015260800190565b60208082526010908201526f21a0a62622a92fa727aa2fa7aba722a960811b604082015260600190565b60208082526017908201527f494e56414c49445f524557415244535f44455441494c53000000000000000000604082015260600190565b602080825260139082015272494e56414c49445f53544152545f424c4f434b60681b604082015260600190565b60006020828403121561278457600080fd5b815160ff8116811461203f57600080fd5b600181815b808511156127d05781600019048211156127b6576127b66125d7565b808516156127c357918102915b93841c939080029061279a565b509250929050565b6000826127e757506001611c60565b816127f457506000611c60565b816001811461280a576002811461281457612830565b6001915050611c60565b60ff841115612825576128256125d7565b50506001821b611c60565b5060208310610133831016604e8410600b8410161715612853575081810a611c60565b61285d8383612795565b8060001904821115612871576128716125d7565b029392505050565b6000611c5d60ff8416836127d8565b60006020828403121561289a57600080fd5b5051919050565b634e487b7160e01b600052603260045260246000fd5b6000600182016128c9576128c96125d7565b5060010190565b6020808252602b908201527f496e697469616c697a61626c653a20636f6e7472616374206973206e6f74206960408201526a6e697469616c697a696e6760a81b606082015260800190565b60006020828403121561292d57600080fd5b815161203f81612415565b60005b8381101561295357818101518382015260200161293b565b50506000910152565b6000825161296e818460208701612938565b9190910192915050565b6020815260008251806020840152612997816040850160208701612938565b601f01601f1916919091016040019291505056fe360894a13ba1a3210667c828492db98dca3e2076cc3735a920a3ca505d382bbc416464726573733a206c6f772d6c6576656c2064656c65676174652063616c6c206661696c6564a2646970667358221220c0853cfc22318609baa450c6db9518670509c14d61d205fb6010377ea7d8fff964736f6c63430008110033",
  "linkReferences": {},
  "deployedLinkReferences": {}
}